:100000000C94D0060C9417070C9417070C94170740
:100010000C9417070C9417070C9417070C941707E8
:100020000C9417070C9417070C940C2F0C94DF2FCB
:100030000C946F290C9417070C9417070C9417074E
:100040000C9417070C9417070C9417070C941707B8
:100050000C9417070C94DA290C9417070C941707C3
:100060000C9417070C9417070C9417070C94170798
:100070000C9417070C9417070C9417070C94170788
:100080000C9417070C9417070C9417070C94170778
:100090000C9417070C9417070C9417070C94170768
:1000A0000C9417070C9417070C9417070100010014
:1000B0000100010001000100010001000100010038
:1000C00001000100010001000100040016000B0006
:1000D00017000100010001001100080012000C00CF
:1000E0000100010001001D001B00060019000100B5
:1000F000010001001500070018000F0000000100BA
:10010000010000000100010000612C41010001001C
:10011000284200620100010000000100010001000E
:1001200001000000000001000000000000000000CD
:1001300001000100010001000100010001000100B7
:1001400001000100010001000100010001000100A7
:100150000100010001002900645D655D26000100C9
:1001600001000100220023002400250001000100FD
:1001700001002B00665D675D2700010001000100A2
:100180001E001F00200021000000010001000000EF
:100190000100010000612C410100010028420062C1
:1001A0000100010000000100010001000100000049
:1001B000000001000000000000000000010001003C
:1001C0000100010001000100010001000100010027
:1001D0000100010001000100010001000100010017
:1001E00001003D003E003F004C0001000100010005
:1001F0005000510052004F000100010001003A0080
:100200003B003C002A000100010001004A004B00B5
:100210004E004D000000010001000000010001003F
:1002200000612C4101000100284200620100010030
:1002300000000100010001000100000000000100B9
:1002400000000000000000000100010001000100AA
:100250000100010001000100010001000100010096
:1002600001000100010001000100010001001F0266
:1002700020022E022E0001000100010026022702AA
:100280002F00300001000100010035001E022D008A
:100290002D02010001000100330233003400380058
:1002A00000000100010000000100010000612C417C
:1002B000010001002842006201000100000001006D
:1002C000010001000100000000000100000000002A
:1002D0000000000001000100010001000100010018
:1002E0000100010001000100010001000100010006
:1002F00001000100010001000100695DAE00A900DC
:100300000052010001000100EF00EE00ED00F000DE
:10031000010001000100AC00A800AA00AB00010030
:1003200001000100F400FA00F900F50000000100EE
:1003300001000000010001000061F3000100010064
:10034000F100F200010001000000010001000100C5
:10035000010000000000010000000000000000009B
:1003600001000100010001001500080000003C0030
:100370003F0000003B003E0000003B003C0000004E
:100380003A003B0000003E003F0000003D003E0000
:1003900000002C412842000018000F000000070058
:1003A0001800000015000700000012000C000000FB
:1003B00008001200000011000800000006001900EB
:1003C00000001B00060000001D001B0000000B00C9
:1003D0001700000016000B000000040016000000CB
:1003E00044454255473A2064697361626C65642EE6
:1003F0000A0044454255473A20656E61626C656467
:100400002E0A004F6E6573686F743A2074696D65CB
:100410006F75740A004F6E6573686F743A2061637C
:10042000746976653A2025640A000A00253032583E
:10043000006B6579626F6172645F7365745F6C6590
:10044000643A20000A002530313662003A20002547
:10045000303258000A722F6320303132333435364F
:100460003738394142434445460A00313A09646508
:100470006C6179282A31306D73293A2025750A324A
:100480003A09696E74657276616C286D73293A2039
:1004900025750A333A096D61785F73706565643A52
:1004A0002025750A343A0974696D655F746F5F6D54
:1004B00061783A2025750A353A09776865656C5F79
:1004C0006D61785F73706565643A2025750A363A08
:1004D00009776865656C5F74696D655F746F5F6DE2
:1004E00061783A2025750A00703A097072696E7455
:1004F0002076616C7565730A643A097365742064CB
:10050000656661756C74730A75703A092B310A64FB
:100510006E3A092D310A6C743A092B31300A727423
:100520003A092D31300A4553432F713A09717569E3
:10053000740A0A7370656564203D2064656C74619B
:10054000202A206D61785F7370656564202A2028F9
:10055000726570656174202F2074696D655F746FBA
:100560005F6D6178290A77686572652064656C74CF
:10057000613A20637572736F723D25642C20776831
:1005800065656C3D25640A53656520687474703A2E
:100590002F2F656E2E77696B6970656469612E6FA8
:1005A00072672F77696B692F4D6F7573655F6B6528
:1005B00079730A004D3E20004D25753A25733E2083
:1005C000003F0A003D2025750A003F0A0064656669
:1005D00061756C74730A0025750A003F0A000A09E8
:1005E0002D2056616C756573202D0A00710A000A72
:1005F000092D204D6F7573656B6579202D0A003FBD
:1006000000433E20004C25640A000A092D20537443
:1006100061747573202D0A686F73745F6B657962FE
:100620006F6172645F6C65647328293A20253032EB
:10063000580A6B6579626F6172645F70726F746F74
:10064000636F6C3A20253032580A6B6579626F61AE
:1006500072645F69646C653A20253032580A6B65B4
:10066000796D61705F636F6E6669672E6E6B726F16
:100670003A20253032580A74696D65725F7265617F
:1006800064333228293A202530386C580A000A0988
:100690002D2056657273696F6E202D0A5649443AB3
:1006A0002030783433333528534154414E2920507B
:1006B00049443A20307830303032284748363020AC
:1006C000536174616E29205645523A20307830309B
:1006D00030330A4255494C443A2020284E6F762048
:1006E00032332032303231290A4F5054494F4E5361
:1006F0003A204C554641204D4F5553454B455920C6
:1007000045585452414B455920434F4E534F4C4549
:1007100020434F4D4D414E44204E4B524F203430DC
:1007200039360A4743433A2031312E312E302041A9
:1007300056522D4C4942433A20322E302E30204121
:1007400056525F415243483A20617672350A000A98
:10075000092D20436F6E736F6C65202D0A4553433E
:100760002F713A09717569740A6D3A096D6F757365
:10077000656B65790A000A092D204D616769632060
:100780002D0A443A094465627567204D65737361AB
:10079000676520546F67676C650A583A094D617444
:1007A000726978204465627567204D6F64652054D6
:1007B0006F67676C65202D2053686F77206B6579B4
:1007C0007072657373657320696E206D61747269F0
:1007D0007820677269640A4B3A094B6579626F61E8
:1007E000726420446562756720546F67676C65208A
:1007F0002D2053686F77206B657970726573732055
:100800007265706F72740A4D3A09446562756720AB
:100810004D6F75736520546F67676C650A563A09AA
:1008200056657273696F6E0A533A09537461747531
:10083000730A433A09416374697661746520436FB2
:100840006E736F6C65204D6F64650A46312D4631BD
:10085000303A0953776974636820746F204C61796A
:10086000657220302D392028463130203D204C3013
:10087000290A302D393A0953776974636820746FF7
:10088000204C6179657220302D390A475241564516
:100890003A0953776974636820746F204C617965F5
:1008A0007220302028616C7465726E617465290A4B
:1008B000423A094A756D7020746F20426F6F746CF4
:1008C0006F616465720A4553433A094A756D702039
:1008D000746F20426F6F746C6F6164657220286161
:1008E0006C7465726E617465290A453A09507269C3
:1008F0006E7420454550524F4D2053657474696E97
:1009000067730A4253504143453A09436C6561722B
:1009100020454550524F4D0A4E3A094E4B524F20FA
:10092000546F67676C650A006B65796D61705F6312
:100930006F6E6669672E7261773A20253032580AE9
:100940002E737761705F636F6E74726F6C5F63613B
:1009500070736C6F636B3A2025750A2E6361707338
:100960006C6F636B5F746F5F636F6E74726F6C3A02
:100970002025750A2E737761705F6C63746C5F6CF1
:100980006775693A2025750A2E737761705F726307
:10099000746C5F726775693A2025750A2E737761EA
:1009A000705F6C616C745F6C6775693A2025750ABD
:1009B0002E737761705F72616C745F726775693AEC
:1009C0002025750A2E6E6F5F6775693A2025750AB6
:1009D0002E737761705F67726176655F6573633AE6
:1009E0002025750A2E737761705F6261636B736C8B
:1009F0006173685F6261636B73706163653A202540
:100A0000750A2E6E6B726F3A2025750A0064656256
:100A100075675F636F6E6669672E7261773A20252E
:100A20003032580A2E656E61626C653A2025750A6F
:100A30002E6D61747269783A2025750A2E6B65797E
:100A4000626F6172643A2025750A2E6D6F75736549
:100A50003A2025750A006565636F6E6669673A0A14
:100A600064656661756C745F6C617965723A2025A6
:100A7000750A003F004E4B524F3A206F66660A00DF
:100A80004E4B524F3A206F6E0A000A6D6F757365B8
:100A90003A206F66660A000A6D6F7573653A206FBB
:100AA0006E0A000A6B6579626F6172643A206F6644
:100AB000660A000A6B6579626F6172643A206F6E34
:100AC0000A000A6D61747269783A206F66660A00DE
:100AD0000A6D61747269783A206F6E0A000A646563
:100AE0006275673A206F66660A000A646562756718
:100AF0003A206F6E0A000A0A4A756D70696E6720A7
:100B0000746F20626F6F746C6F616465722E2E2E2D
:100B10002000433E2000436C656172696E6720458A
:100B20004550524F4D0A00290A002575002F002517
:100B300075005D2800256400200025640020002544
:100B4000640020002564007C0025303258006D6F61
:100B50007573656B6579205B62746E7C7820792093
:100B60007620685D287265702F61636C293A205B7E
:100B7000000A002530325820006B6579626F61727F
:100B8000645F7265706F72743A200064656C5F6BAD
:100B900065795F6269743A2063616E2774206465C9
:100BA0006C3A20253032580A006164645F6B6579C5
:100BB0005F6269743A2063616E2774206164643AED
:100BC00020253032580A005B735D004B6579626FF7
:100BD0006172642073746172742E0A005B575D0049
:100BE0005B535D005B525D005B445D005B435D00F9
:100BF0001603470048003600300020005300610013
:100C0000740061006E0000000C03530041005400AA
:100C100041004E0000000403090409025B000301C7
:100C200000A0FA09040000010301010009211101DB
:100C300000012240000705810308000A09040100A1
:100C4000010300000009211101000122B60007057F
:100C5000820320000A0904020002030000000921A7
:100C6000110100012222000705830320000107056E
:100C700003032000011201000200000008354302B6
:100C8000000300010200010631FF0974A10109758A
:100C9000150026FF009520750881020976150026AB
:100CA000FF00952075089102C005010902A1018588
:100CB000020901A10005091901290815002501955E
:100CC00008750181020501093009311581257F95DB
:100CD000027508810609381581257F9501750881FF
:100CE00006050C0A38021581257F950175088106D5
:100CF000C0C005010980A101850319012AB70015AB
:100D00000126B700950175108100C0050C0901A1ED
:100D100001850419012AA002150126A0029501757A
:100D2000108100C005010906A1018505050719E02C
:100D300029E71500250195087501810205071900AD
:100D400029EF1500250195F07501810205081901AB
:100D50002905950575019102950175039101C0055D
:100D6000010906A101050719E029E71500250195EC
:100D7000087501810295017508810105071900298F
:100D8000FF150026FF00950675088100050819016A
:100D90002905950575019102950175039101C00022
:100DA00011241FBECFEFDAE0DEBFCDBF04B603FED5
:100DB00027C08091260490912704A0912804B09127
:100DC00029048730904BA740B04BD1F410922604F1
:100DD00010922704109228041092290414BE84B79C
:100DE000877F84BF0FB6F894A895809160008861D2
:100DF00080936000109260000FBEE0E0F8E3099578
:100E000012E0A0E0B1E0EAE4F5E602C005900D9240
:100E1000A038B107D9F724E0A0E8B2E001C01D92E4
:100E2000A632B207E1F70E942A1C0C941C320C94E3
:100E30000000FF93EF93E0918002F09181023097E0
:100E400009F00995EF91FF910895FC01859180309B
:100E500011F0EFDFFBCF0895FF27E0E230E247FF1C
:100E60000CC0419597FF09C0EDE2609570958095A3
:100E70009095611D711D811D911D27FF02C0219557
:100E800030E350E2AA27660F771F881F991FAA1F19
:100E9000A41710F0A41B63955A95A9F7AA3008F07F
:100EA000A95FA05DAF93F39561157105810591056B
:100EB00041F7ED3211F4EF93F395F21718F43F93E5
:100EC000F395FBCF8F91B5DFFA95E1F70895E9919E
:100ED000F9918591803021F0853219F0AADFF9CFA0
:100EE000089520E0E89455915532C1F3503311F440
:100EF000689455915A3348F4505390F3220F022EC0
:100F0000220F220F200D250FF4CF0EF42195899189
:100F10009991533619F3533729F1533559F1BC01DF
:100F200088279927E8945C3621F4899199916894EF
:100F30005591543639F446EF7EF077FF0DC08FEFB0
:100F40009FEF0AC055374AE039F0583540E121F0AB
:100F5000523642E009F00895FF93EF937DDFEF9161
:100F6000FF91B7CFFF93EF93FC0181918030B9F3EC
:100F700060DFFBCFFF93EF9368DFF1CFDF93CF9379
:100F8000CDB7DEB72596A3DFCF91DF910895EF921D
:100F9000FF920F931F93CF938C017B018091870267
:100FA000882399F0FB01C281CC2379F0053E11051D
:100FB00009F440C020F5C801815E91090297D0F183
:100FC00082EE0E94CE0A1092870208368DE518073D
:100FD00009F482C0B0F50636FDE51F0709F464C0C8
:100FE00007368DE5180709F469C00436EDE51E07DC
:100FF00051F005361D4509F442C0C1E01BC004365E
:10100000FDE51F07E9F6F701C281CC23A1F180912C
:101010008702811106C081E08093870282EE0E94E0
:10102000380A0E949F2990938502809384028BE264
:101030000E94380A8C2FCF911F910F91FF90EF9053
:101040000895011581E6180709F45BC00115E2E671
:101050001E0709F464C009361D4579F6F701C281FF
:10106000CC2309F444C083EE0E94380A81EE0E942A
:10107000380A86E1DDCF8BE20E94CE0ABECFF701AF
:10108000C281CC23C1F380918602811106C081E028
:101090008093860280EE0E94380A0E949F299093D6
:1010A000830280938202C3CFF701C28182EEC11115
:1010B0000AC08DE30E94CE0A82EEDECFF701C28124
:1010C000CC2329F080EE0E94380A8DE3B1CF8DE366
:1010D0000E94CE0A80EED0CFF701C281CC2329F046
:1010E00080EE0E94380A89E1A3CF89E1F1CF86E141
:1010F0000E94380A81EE0E94380A83EE0E94380A64
:101100007CCFF7018581807F09F477CF82818823A6
:1011100009F473CF88E00E949815C0E08BCFF701E7
:101120008581807F09F469CF8281882309F465CFA6
:1011300084E1F1CF80918702882371F0809184024D
:10114000909185020E94CB29853F914028F082EE44
:101150000E94CE0A1092870280918602882371F045
:1011600080918202909183020E94CB29853F914019
:1011700028F080EE0E94CE0A10928602089581E047
:1011800008950C94C70708950C94C3081F93CF9338
:10119000DF9300D000D00F92CDB7DEB749835A83DA
:1011A0006B833091880289819A8131111DC0662339
:1011B000B9F02223A9F00E94B310182F682F89815B
:1011C0009A810E945C1069817A81812F0F900F9023
:1011D0000F900F900F90DF91CF911F910C942718D3
:1011E0000E948A10182FEFCF0E94B31069817A8174
:1011F000EDCFFC01262F86819781009739F440813D
:1012000051816281738184810C94C6080895CF93C3
:10121000DF93D82FC92F61E00E94F9086D2F7C2F32
:10122000DF91CF910C94D225CF93DF93D82FC92F84
:1012300060E00E94F9086D2F7C2FDF91CF910C9414
:10124000C4080E944C1A0E94D6090C94851A0E9468
:101250008E250C94871A08950E942B0E0E942B094C
:101260002FEF84E39CE0215080409040E1F700C0E4
:1012700000000C94FE290F931F93CF93DF938C01F2
:1012800061E00E94F908EC01B8010E94C1088823BE
:10129000C9F1B801CE010E94AF22882399F1B801AB
:1012A000CE010E940423882369F1B801CE010E9477
:1012B000DC23882339F1F8018281882381F0CB3542
:1012C000FDE5DF07D1F190F4C130ECE5DE0701F177
:1012D000CF3DFCE5DF0771F1C115DC4589F0C801A0
:1012E000DF91CF911F910F910C94BF08CC35EDE5A4
:1012F000DE0731F1CD35DD4591F70E943715EFCF8F
:101300000E942C0980E0DF91CF911F910F910895E9
:1013100090914503892F8E7F90FF816080934503D4
:1013200080FF05C082EF93E00E942507EBCF80EE9F
:1013300093E0FACF0E940C17E5CF0E944015CFCF63
:101340000E944315CCCF829594E0899F900111248F
:101350002C7C869586958373282B30E0C901880FF5
:10136000991F8A7A359527952575822B0895CF93F5
:10137000DF93D92F0E94A309C82F8D2F0E94A309A4
:101380009C2FDF91CF91089508950C94C40981E0BA
:101390000895CF93C82F0E94C709882319F0C1FD73
:1013A00003C02A9ACF9108952A98FCCF229A2A9AAC
:1013B0000895CF93C82F0E94C5098C2FCF910C940C
:1013C000C9090F931F93CF93DF93CDB7DEB72D9746
:1013D0000FB6F894DEBF0FBECDBF49875A876B8723
:1013E0007C878D8761110E9468151E821F82188676
:1013F00085E0FE0139968E010F5F1F4FD8010190E5
:101400000D928A95E1F70E94F514882319F082E085
:101410000E9445160E94DB1481110E94C815898123
:101420009A812C813D81232BA9F429813A814B811A
:101430005C816D817E818F8198850E9424142D9618
:101440000FB6F894DEBF0FBECDBFDF91CF911F91D5
:101450000F91089589238F3F41F3C8010E94070926
:101460008111E3CFECCFFC01808191810C94F510C8
:10147000CF93C82F882309F48FC08238C1F40E940B
:101480009C2781FD89C089E30E94C4140E94D6155F
:101490002FEF31EE84E0215030408040E1F700C072
:1014A000000089E30E94CB14CF910C94D6158338A9
:1014B000A1F40E949C2780FD6FC083E50E94C414A4
:1014C0000E94D6159FEF21EE34E09150204030402D
:1014D000E1F700C0000083E5E5CF8438A1F40E9465
:1014E0009C2782FD59C087E40E94C4140E94D6152F
:1014F0008FEF91EE24E0815090402040E1F700C052
:10150000000087E4CFCF8CEF8C0F813AB8F48C2F9A
:101510000E94EE1E811140C06C2F80918C01909131
:101520008D010E944D28882329F08C2F0E94CB1416
:101530000E94D6158C2F0E94C414B6CF80E28C0F67
:10154000883048F4C77081E001C0880FCA95EAF777
:101550000E944915A9CF8BE58C0F833038F42C2FCE
:101560002452330BC901CF910C940D28E8E5EC0F00
:10157000E73150F4F0E0EE0FFF1FEC55FE4F808195
:101580009181CF910C942328CD3E30F08C2F0E9476
:10159000C61FCF910C948820CF910895882309F419
:1015A00052C0823871F40E949C2781FF4CC089E3AD
:1015B0000E94C4140E94D61589E30E94CB140C9497
:1015C000D615833859F40E949C2780FF3CC083E5E0
:1015D0000E94C4140E94D61583E5EFCF843859F4D5
:1015E0000E949C2782FF2FC087E40E94C4140E949F
:1015F000D61587E4E2CF9CEF980F913AF0F290E293
:10160000980F983050F4877091E001C0990F8A9537
:10161000EAF7892F0E944F15D2CF9BE5980F9330A0
:1016200020F490E080E00C940D2898E5980F973115
:1016300020F490E080E00C9423288D3E20F00E945E
:101640000F200C94882008951F93CF93DF93182FB9
:10165000EB010E94380A209731F4812FDF91CF915E
:101660001F910C94CE0A8FE99FE00197F1F700C01B
:1016700000002197F0CF70E060E0893311F460E55D
:1016800070E00C94240B882321F00E9449150C94DF
:10169000D6150895882321F00E944F150C94D61575
:1016A0000895AF92BF92CF92DF92EF92FF920F9385
:1016B0001F93CF93DF9300D000D00F92CDB7DEB74A
:1016C0006C016D837983FC010281158112951F7075
:1016D0000E940B15E82E8823A1F0E02E002389F04C
:1016E0008981807F803429F08D81805EE12C883073
:1016F00040F082E00E9445160E940B1591E0E82E12
:10170000E926A980A2949FE0A922B12CF501E25E0E
:10171000FD4C0C94B33119811F70F981F07F11F0E9
:101720001295107F0023B1F0112361F08D81805E4E
:10173000883018F00D81011109C0812F0E944915D0
:101740000E94D6158D810E94380A15C0812F0E94F3
:101750005A15F6CF8D810E94CE0A112361F08D813A
:10176000805E883018F00D81011133C0812F0E94F6
:101770004F150E94D61598E0A91AB108E4E0AE16FC
:10178000B10420F40E949C270E94D909EE2009F49C
:10179000F6C10E94F11480FDF2C1F60112820E948E
:1017A000EB140E944C0FC6010E94ED0D0E94EB1439
:1017B0000F900F900F900F900F90DF91CF911F918E
:1017C0000F91FF90EF90DF90CF90BF90AF900C946F
:1017D0007D0F812F0E946015CCCF29812F70F22EB2
:1017E0003981307F303219F0F29480EFF8228D8108
:1017F000882341F08130B9F1002309F43EC0112360
:10180000D1F0A0CF0023C9F0111106C00E947C15B1
:101810008F290E94430BAFCF113031F40E947C1509
:101820008F290E94B015A7CF133081F70E94C815E9
:101830008F2D0E9482158F2DECCF111106C00E94B2
:10184000C8158F2D0E944A0B96CF113041F40E948B
:1018500046158F2109F48FCF0E948B15F0CF1330DE
:1018600009F489CFECCF002321F0163008F083CFA4
:10187000E2CF153008F07FCFE4CF112311F30D81B3
:10188000093349F41FEF27EE33E011502040304078
:10189000E1F700C000008D810E94CE0A6CCF8981E3
:1018A00086958695837069F0813009F064CF8D81CB
:1018B00099819370011102C090E080E00E9423287A
:1018C0005ACF8D8199819370011102C090E080E020
:1018D0000E940D2850CF8D81002329F00E94C61F41
:1018E0000E94882048CF0E940F20FACF8981837000
:1018F00009F050C001113FCF2D8122952695277008
:10190000220F220F4D814F7050E070E060E0022EF8
:1019100004C0440F551F661F771F0A94D2F70D812C
:1019200080E090E0DC0104FF0FC08FE090E0A0E0D9
:10193000B0E004C0880F991FAA1FBB1F2A95D2F7D9
:1019400080959095A095B095198116951695137070
:101950001D838C019D01042B152B262B372B09830E
:101960001A832B833C831D8169817A818B819C81C1
:10197000123051F0133059F0113019F00E94C20E9C
:10198000FACE0E949A0EF7CE0E94EA0EF4CE0E9482
:10199000980EF1CE002309F448C0098100FFEBCE78
:1019A0002D81229526952770220F220F4D814F7091
:1019B00050E070E060E0022E04C0440F551F661F27
:1019C000771F0A94D2F70D8180E090E0DC0104FFDC
:1019D0000FC08FE090E0A0E0B0E004C0880F991F36
:1019E000AA1FBB1F2A95D2F780959095A095B09518
:1019F00019811695169513701D838C019D01042B7A
:101A0000152B262B372B09831A832B833C831D81AF
:101A100069817A818B819C81123071F0133079F069
:101A2000113039F00E940B10A6CE198111FFA3CE00
:101A3000B7CF0E94E30F9FCE0E9433109CCE0E942E
:101A4000160F99CE19811F701983002329F0812F59
:101A50000E944C0F8D81DDCE8D810E944A0B8981C1
:101A60000E947D0F88CE2D81223FD1F160F4203F6E
:101A700011F1213F71F1002309F460C0111162CE10
:101A800089818F712AC03D81333F79F1343F99F7C5
:101A9000002309F441C00E94D8140E944F150E94EF
:101AA000F114843061F50E943C1689818F710E9487
:101AB0007D0FE12C60CE002341F0153008F05BCEA5
:101AC00089818F710E94B20F56CE163008F053CE26
:101AD000F7CF89818F71002319F20E944C0F4BCEF2
:101AE00089818F710023C9F3BBCF002329F089813D
:101AF0008F710E94270F3FCE0E94220F3CCE1330E1
:101B0000C0F609810F710983802F0E944C0F63E09A
:101B100089810E942016CDCF0E94D8140E944915B9
:101B2000133040F00E943C160E948B1564E08981BE
:101B30008F71EFCF81E00E944516BBCF112361F07A
:101B40001D81193309F0A7CE2FEF37EE83E0215026
:101B500030408040E1F79DCE89818F7181CF4981EE
:101B60004F706D81C6010E9423180E942B1103CE75
:101B700049814F706D81C6010E942618FCCD0F90DF
:101B80000F900F900F900F90DF91CF911F910F91B9
:101B9000FF90EF90DF90CF90BF90AF9008950F939C
:101BA0001F93CF93DF93EC018E819F81009779F093
:101BB0000E9443188C010E945B100E94970EB8018E
:101BC000CE01DF91CF911F910F910C94510B688141
:101BD00079818A810E940111EDCFCF93DF93EC01CF
:101BE000988189812B813C81232B19F089238F3F98
:101BF00059F4DF91CF910895CE010E94CF0DCE010F
:101C0000DF91CF910C941409CE010E943B09811100
:101C1000F3CF0E940B15882361F38A81882349F34F
:101C200082E0DF91CF910C94451690E080E00E9415
:101C30000D2890E080E00E9423280E9468150E94F1
:101C400079150E94D6150E9435220C9488200E9496
:101C5000D2140C94150E0E9457150C94270E282FA1
:101C6000892F82958F70903C80F48A30B0F4843054
:101C700020F4823090F480E008958630E1F781E02E
:101C8000283E88F0213FB9F70EC08C3011F08F301C
:101C900091F793FB882780F9089581E0203F39F080
:101CA00018F4283E40F70895243F29F7FCCF089503
:101CB000FC0186819781009721F00E9443180C94C3
:101CC0002F0E808191810E94F510F9CFCF93DF9381
:101CD00000D000D00F92CDB7DEB70F900F900F90CD
:101CE0000F900F90DF91CF910895CF93DF93CDB7F1
:101CF000DEB728970FB6F894DEBF0FBECDBF28968B
:101D00000FB6F894DEBF0FBECDBFDF91CF9108951F
:101D100008950C94880E0E94890E6093BA02709305
:101D2000BB028093BC029093BD020C94150E0895E3
:101D30000C948B0ECF93DF9300D000D0CDB7DEB7DD
:101D400069837A838B839C838091BA029091BB02D2
:101D5000A091BC02B091BD0229813A814B815C8186
:101D6000282B392B4A2B5B2B29833A834B835C83AB
:101D7000CA01B9010F900F900F900F90DF91CF9192
:101D80000C948B0ECF93DF9300D000D0CDB7DEB78D
:101D900069837A838B839C838091BA029091BB0282
:101DA000A091BC02B091BD0229813A814B815C8136
:101DB000282339234A235B2329833A834B835C837B
:101DC000CA01B9010F900F900F900F90DF91CF9142
:101DD0000C948B0ECF93DF9300D000D0CDB7DEB73D
:101DE00069837A838B839C838091BA029091BB0232
:101DF000A091BC02B091BD0229813A814B815C81E6
:101E0000282739274A275B2729833A834B835C831A
:101E1000CA01B9010F900F900F900F90DF91CF91F1
:101E20000C948B0E0C94880E0C94120F0E94140FBD
:101E30006093B6027093B7028093B8029093B90290
:101E40000C94150E60E070E0CB010C94160F0F930C
:101E50001F93CF93DF9300D000D0CDB7DEB741E022
:101E600050E060E070E08A019B0104C0000F111F88
:101E7000221F331F8A95D2F709831A832B833C8351
:101E8000C901B8010F900F900F900F90DF91CF9183
:101E90001F910F910C94160F0F931F93CF93DF9305
:101EA00000D000D0CDB7DEB741E050E060E070E098
:101EB00004C0440F551F661F771F8A95D2F7809183
:101EC000B6029091B702A091B802B091B9028A010E
:101ED0009B01082B192B2A2B3B2B09831A832B835D
:101EE0003C83C901B8010F900F900F900F90DF91C4
:101EF000CF911F910F910C94160F0F931F93CF93B7
:101F0000DF9300D000D0CDB7DEB741E050E060E015
:101F100070E004C0440F551F661F771F8A95D2F7E3
:101F200040955095609570958091B6029091B7025A
:101F3000A091B802B091B9028A019B01082319232C
:101F40002A233B2309831A832B833C83C901B801CD
:101F50000F900F900F900F90DF91CF911F910F91E5
:101F60000C94160F0F931F93CF93DF9300D000D0E4
:101F7000CDB7DEB741E050E060E070E004C0440F50
:101F8000551F661F771F8A95D2F78091B6029091F0
:101F9000B702A091B802B091B9028A019B0108274B
:101FA00019272A273B2709831A832B833C83C901DE
:101FB000B8010F900F900F900F90DF91CF911F916C
:101FC0000F910C94160FCF93DF9300D000D0CDB7B4
:101FD000DEB769837A838B839C838091B60290916C
:101FE000B702A091B802B091B90229813A814B8120
:101FF0005C81282B392B4A2B5B2B29833A834B831B
:102000005C83CA01B9010F900F900F900F90DF9180
:10201000CF910C94160FCF93DF9300D000D0CDB7A3
:10202000DEB769837A838B839C838091B60290911B
:10203000B702A091B802B091B90229813A814B81CF
:102040005C81282339234A235B2329833A834B83EA
:102050005C83CA01B9010F900F900F900F90DF9130
:10206000CF910C94160FCF93DF9300D000D0CDB753
:10207000DEB769837A838B839C838091B6029091CB
:10208000B702A091B802B091B90229813A814B817F
:102090005C81282739274A275B2729833A834B838A
:1020A0005C83CA01B9010F900F900F900F90DF91E0
:1020B000CF910C94160F0895E82F2EE0929FE00D1B
:1020C00011248E2F877041E001C0440F8A95EAF7F2
:1020D000E695E695E69585E0E89FF0011124E7573F
:1020E000FD4F30E020E070E05191DF011197CB010E
:1020F000022E02C0969587950A94E2F78170819529
:102100008527842385278C932F5F3F4F253031050A
:1021100059F70895E82F2EE0929FE00D11249E2F8D
:102120009770E695E695E69585E0E89FF001112425
:10213000E757FD4F50E040E080E0219130E0092E6C
:1021400002C0369527950A94E2F721703327042EB2
:1021500001C0220F0A94EAF7822B4F5F5F4F453090
:10216000510559F70895BF92CF92DF92EF92FF92F7
:102170000F931F93CF93DF938C01C090B602D09042
:10218000B702E090B802F090B9028091BA02909143
:10219000BB02A091BC02B091BD02C82AD92AEA2A8A
:1021A000FB2ACFE1D0E0BC2ED701C6010C2E04C023
:1021B000B695A795979587950A94D2F780FD0EC09E
:1021C000219788F7B12C8B2DDF91CF911F910F9123
:1021D000FF90EF90DF90CF90BF900895B8018C2FC3
:1021E0000E945519019761F3EECFCF93DF93D82F5B
:1021F000C92F0E94B3106D2F7C2FDF91CF910C94CB
:1022000055191F93CF93DF93162FD72F90918802E4
:10221000992339F0862F972FDF91CF911F910C943E
:10222000F510882391F0862F972F0E94B310C82FA6
:10223000682F812F9D2F0E945C10612F7D2F8C2F86
:10224000DF91CF911F910C945519862F972F0E94E3
:102250008A10C82FF2CFEF92FF920F931F93CF9364
:10226000DF938C01892B89F0F12CEE24E394E801B3
:102270002196F8018491843709F458C0A0F4823083
:1022800009F43FC048F48130D1F0DF91CF911F9124
:102290000F91FF90EF9008959CEF980F9037A8F75B
:1022A0000E94380A0AC0853709F44EC09CE7980F8F
:1022B000903758F78F770E94CE0A8E0116C00E5FB6
:1022C0001F4FFE01849190E2980F983060F4877060
:1022D000FE2D01C0FF0F8A95EAF78F2F0E946B1524
:1022E0000E94D61502C00E94380A8F2D882309F457
:1022F000BECFEFE9FFE03197F1F700C00000815059
:10230000F5CF0E5F1F4FFE01849190E2980F983039
:1023100050F48770FE2D01C0FF0F8A95EAF78F2FCA
:102320000E947115DDCF0E94CE0ADFCF0E5F1F4FD6
:10233000FE01C491CC23C9F28FE99FE00197F1F728
:1023400000C00000C150F6CF0E5F1F4FFE01F49099
:10235000CCCFCF93DF93E091BE028091BF028E136A
:1023600003C0DF91CF910895CE2FD0E088E0E89FA1
:10237000F0011124E054FD4F2081318142815381CD
:1023800064817581868197810E94750E2196EC2F5C
:10239000E770E3CF209100033091010340910203E5
:1023A000509103036091040370910503809106032B
:1023B000909107030C94750ECF93DF9380910503E2
:1023C000807FA1F480910203882381F08091BE0276
:1023D000C091BF027091000360910103A0910303BB
:1023E000B0910403D62FD723C81303C0DF91CF9138
:1023F000089590E0109711F0DF3F19F4019687706F
:10240000F3CF9C0143E0220F331F4A95E1F7F90116
:10241000E054FD4F41816413F1CF40814713EECF6B
:1024200042814111EBCF438154814A1B5B0B483CF5
:10243000510520F7809105038F708061809305031B
:10244000F901EB53FD4F80818F708061808380E0C4
:1024500093E00E94ED0DDF91CF910C94A911AF9202
:10246000BF92CF92DF92EF92FF920F931F93CF9381
:10247000DF93CDB7DEB72D970FB6F894DEBF0FBE52
:10248000CDBF8C0185E0F801DE01199601900D9217
:102490008A95E1F7D8011296EC9012971396CD9099
:1024A000DC9080E0A82E83E0B82E3091000390915C
:1024B000010340910303509104034115510529F094
:1024C000892F83238F3F09F0ACC1EE2009F4B8C1F6
:1024D000C8010E94580EF82E882309F4B1C188E083
:1024E000F801A0E0B3E001900D928A95E1F780E059
:1024F00093E00E94330A0E94DC114DC180910503D4
:10250000682F607F483C510508F0DFC0F801218149
:10251000611123C1FE2C29132FC0908193132CC06D
:102520006091060370910703468157816417750710
:1025300019F5E11021C08F708061809305030E941E
:10254000CA1180E093E00E94ED0D80910503D8014F
:1025500015968C938F2D2D960FB6F894DEBF0FBE77
:10256000CDBFDF91CF911F910F91FF90EF90DF9042
:10257000CF90BF90AF9008953985C114D10429F050
:10258000822F83238F3F09F0E5C080E0E091BE02F7
:102590004091BF0280FD2EC0CD2829F0822F8323D9
:1025A0008F3F09F0CBC080E0E82FE170DE2EE09194
:1025B000BE024091BF0280FD34C0EE2059F28091EE
:1025C0000503816080930503F12CC4CF8E2F90E02A
:1025D000B8E0EB9FF0011124E054FD4F5181251329
:1025E00006C05081531303C052815E11AAC00196E8
:1025F000E82FE770E413EACFCFCF8E2F90E058E0BA
:10260000E59FF0011124E054FD4F5181251306C0D0
:102610005081531303C052815E11CFCF0196E82F32
:10262000E770E413EACF89859A850E94F510292F77
:1026300022952F70903268F0225F2F70223080F444
:102640009F7059F0D80115969C91907F31F4D12C50
:102650000AC09F7011F08823D1F3805E8830B8F3F0
:10266000C8010E94ED0DFD2C75CFC8010E94580EC7
:10267000882309F4E5C0EE2009F4E2C08091050347
:102680008032A0F020910003309101033A83298326
:102690001B82DD82CC828E8380910603909107039A
:1026A00098878F83CE0101960E94ED0D88E0F80196
:1026B000A0E0B3E001900D928A95E1F70E94DC1151
:1026C0000E94CA11FF24F39445CF611167C0498568
:1026D0005A856B857C858D850E94660E80E093E02F
:1026E0000E94ED0D88E0D5011D928A95E9F70E94C0
:1026F000CA116ACF88E0F801A0E0B3E001900D9222
:102700008A95E1F727CFC8010E94580E8111CECFDC
:1027100080910503816080930503C8010E94ED0D3F
:1027200019CF49855A856B857C858D850E94660EFB
:1027300088E0D5011D928A95E9F72DC081E08E25AC
:1027400033CF80E093E00E94ED0D88E0E0E0F3E01D
:10275000DF01CACF81E08E2519CF291386CFF8017A
:102760009081931382CF40910603509107032681F5
:1027700037814217530709F078CFE11076CF858370
:10278000C8010E94ED0D88E0F801A0E0B3E00190DF
:102790000D928A95E1F70E94CA11DCCEF8012181E1
:1027A000921363CFF801908193135FCF409106039A
:1027B00050910703268137814217530709F055CFFF
:1027C000E11053CF8583C8010E94ED0D88E0D5014B
:1027D0001D928A95E9F7BECED80111968C91981377
:1027E00092CFF801808183138ECF20910603309120
:1027F0000703868197812817390709F084CF8091D4
:10280000050380FD77CF982F907F09F473CF8583E0
:10281000903F09F4B5CF982F907F905F8F70892BF0
:10282000AECFF0900203F601E41BF50BAF01F110FF
:1028300065CE483C510508F074CFFE2CE110CCCF9A
:10284000C8010E94ED0D3ECFCF93DF93CDB7DEB729
:1028500060970FB6F894DEBF0FBECDBF29873A87C9
:102860004B875C876D877E878F87988BCE01099613
:102870000E942F128823D1F08C859D85892B39F0F9
:102880003A852985832F82238F3F09F074C0809178
:10289000BE029091BF02891348C060960FB6F894AB
:1028A000DEBF0FBECDBFDF91CF91089588E0FE015E
:1028B0003996DE01119601900D928A95E1F789858E
:1028C0009A85A091BF022091BE024C855D85452B63
:1028D000F1F289238F3FD9F2B0E0CD0101968770E4
:1028E00099272817190671F40E942B0E1092BF0227
:1028F0001092BE0288E0E0E0F3E0DF011D928A95CD
:10290000E9F7C5CF93E0AA0FBB1F9A95E1F7A05452
:10291000BD4F98E0FE01319601900D929A95E1F736
:102920008093BF020E94A911B2CFB8E08B9FC00173
:10293000112480549D4F0E942F12882309F4ADCF9B
:10294000E091BE0228E0E29FF0011124E054FD4F27
:102950002081318142815381648175818681978193
:102960000E94750E8091BE0290E0019687709927B3
:102970008093BE028CCF4B855C856D857E858F856F
:1029800098890E94750E83CF682F80918C01909159
:102990008D010C94F328682F80918C0190918D010A
:1029A0000C94FE2880918C0190918D010C94092942
:1029B00080910D0308950E949F2920910B0330916F
:1029C0000C03AC01421B530B9A0181E028383341C0
:1029D00008F480E0089580910A0385958595859592
:1029E000089580910A03877008950E949F2920917D
:1029F000080330910903821B930B8838934148F0F8
:102A000080910A0382FB882780F991E089278170F1
:102A1000089580E0FCCF90910A03977081E009F45B
:102A200080E00895CF93C82F8091000482FB9927FE
:102A300090F99C17D1F0C0FB82F98093000480913B
:102A4000FF03909100040E9488168091450380FF47
:102A50000CC01F92CF9385E194E09F938F930E94C7
:102A6000BE070F900F900F900F90CF910895809117
:102A7000000482FB882780F991E089270C941215C5
:102A800081E00C94121580E00C94121580913103B2
:102A9000089590913103982B909331030895982FC6
:102AA000909580913103892380933103089510928A
:102AB0003103089590913003982B9093300308953B
:102AC000982F909580913003892380933003089547
:102AD00010923003089590912F03982B90932F0319
:102AE0000895982F909580912F03892380932F0329
:102AF000089510922F03089580910E03089508956C
:102B00000C947F1590910D03981721F080930D037D
:102B10000C948015089580910D03882329F010925C
:102B20000D0380E00C948015089508950C9495157C
:102B3000CF93C82F80910E038C238C1779F00E94BD
:102B40009F2990930C0380930B0380910E038C2B91
:102B500080930E038C2FCF910C949615CF910895EE
:102B6000CF93C82F8091000482FD10C080910E0386
:102B70008C1761F00E949F2990930C0380930B03A4
:102B8000C0930E038C2FCF910C949615CF9108957E
:102B900080910E03882349F010920E0310920C03CB
:102BA00010920B0380E00C9496150895E0918C012F
:102BB000F0918D01809131038083E0918C01F0913F
:102BC0008D01808190913003892B8083E0918C016D
:102BD000F0918D01808190912F03892B80838091CA
:102BE0000E03882321F10E94DB14882371F0809169
:102BF000450380FF08C083E094E09F938F930E9479
:102C0000BE070F900F900E94C815E0918C01F091C3
:102C10008D01808190910E03892B808380918C019E
:102C200090918D010E94392881110E94C8158091D0
:102C30008C0190918D010C94A82708950C941D1679
:102C40009091000492FD16C098E0899F9001112494
:102C5000622B60930A030E944C0F0E949F2990935D
:102C600009038093080380910A03859585958595CE
:102C70000C941E160C944C0F10920A031092090328
:102C80001092080380E00C941E1690910A03809520
:102C9000892380930A03282F277039F4282F082EC0
:102CA000000C330B9217130621F49091000492FF4D
:102CB00007C08595859585950E947D0F0C943C16DF
:102CC00008956FEF7FEF90E080E00C94063290E083
:102CD00080E00E94E2319C0181E0293E3E4F09F0F4
:102CE00080E0089582E090E00C94DA3183E090E097
:102CF0000C94DA31CF9384E090E00E94DA31C82F4F
:102D000082E290E00E94DA31982F8C2FCF910895C3
:102D1000CF93682FC92F84E090E00E94E8316C2F98
:102D200082E290E0CF910C94E831AB01BC018FE0DE
:102D300090E00C94FA31AB01BC0183E190E00C947B
:102D4000FA3160E070E0CB010C949B1660E070E01B
:102D5000CB010E9495160C94A11669EE7EEF90E0CF
:102D600080E00E94063260E082E090E00E94E8315C
:102D700060E083E090E00E94E8311092BA02109285
:102D8000BB021092BC021092BD0260E084E090E0B1
:102D90000E94E83160E082E290E00E94E83160E069
:102DA00085E090E00E94E83160E086E090E00E94DB
:102DB000E8316FEF87E090E00E94E83140E050E0BA
:102DC000BA0188E090E00E94FA3160E08DE090E086
:102DD0000E94E83140E050E0BA0188E190E00E94B2
:102DE000FA3160E087E190E00E94E83140E050E095
:102DF000BA018CE190E00E94FA3170E060E080E27C
:102E000090E00E94063240E050E0BA0188E190E094
:102E10000E94FA310C94A6160C94AD16682F8EE021
:102E200090E00C94E8310E94AB29609341037093C9
:102E30004203809343039093440360933D03709354
:102E40003E0380933F0390934003089585B78068C5
:102E500085BF85B7806885BF0895089508950C944F
:102E60002D1708950C9431170E94261789EE9BE2C6
:102E70000E94222A0E942E170C942F1781E0089599
:102E80000C943E17089508950E9442170C9443171E
:102E90000E9496290E948D1B0C943217CF93C82F45
:102EA0008091450382FF1EC080FF1CC081E394E037
:102EB0000E9425078091450380FF14C01F92CF9385
:102EC0008CE294E09F938F930E94BE07809145030C
:102ED0000F900F900F900F9080FF04C08AE294E053
:102EE0000E9425078C2FCF910C94D9098F929F9225
:102EF000AF92BF92CF92DF92EF92FF920F931F9308
:102F0000CF93DF9300D000D00F92CDB7DEB70E94F1
:102F1000A21B81110E94131753E3852E53E0952EB7
:102F200010E000E0A02E802F0E94891A7C01F4019D
:102F3000C190D1904F01C816D90609F45BC08091A9
:102F4000450381FD0E94921AC6018E259F25B12C52
:102F5000CC24C394D12C9C012C213D21232B09F49A
:102F600043C00E9440178823A9F0B982AA82EC20AE
:102F7000FD2081E0EF2809F480E08B830E949F29E7
:102F80008160782F9D838C8349815A816B81892F41
:102F90000E94E109000F111FF801ED5CFC4F8081D8
:102FA00091818C259D25918380830E9424210E94FC
:102FB0009C27909132038917A1F10E949C2780934E
:102FC00032030F900F900F900F900F90DF91CF91E1
:102FD0001F910F91FF90EF90DF90CF90BF90AF9037
:102FE0009F908F900C944E17B394CC0CDD1CFEE098
:102FF000BF12B1CF0F5F1F4F0530110509F092CFFF
:103000008FEF89838A831B820E949F298160782F9A
:103010009D838C8349815A816B81892F0E94E109AC
:10302000C4CF0F900F900F900F900F90DF91CF9122
:103030001F910F91FF90EF90DF90CF90BF90AF90D6
:103040009F908F90089590E080E008950895972FC5
:1030500070E02EE0929F600D711D1124FB0196E43B
:10306000899FE00DF11D1124EE0FFF1FE455FF4F66
:10307000859194910895FC01EE0FFF1FEC5BFB4FCF
:10308000859194910895CF93DF930E945919EC0193
:10309000811520E5920708F043C0811530E49307BD
:1030A00008F0B2C0803E9105E8F4803C910508F03C
:1030B000A0C0883A910578F4853A910508F08BC054
:1030C0008130910521F00497813A910540F4CE01B9
:1030D000DF91CF9108958F3B910509F07FC0D0E03B
:1030E000C0E0F5CFC11580E2D80770F4CF3FD1051D
:1030F00009F068F7C83ED10550F3CE018D5E910905
:10310000D065439720F3EBCFCE01C11520E3D20762
:1031100008F475C09927D3FD74C0EC01D06CD7CFEB
:10312000811535E5930760F5C11584E5D80708F0EA
:103130009EC0C11523E5D20778F4C11532E5D30747
:1031400008F082C0C11581E5D80708F460C0DC2F03
:10315000CC27C16FD06ABBCF9E012370332781E09B
:1031600090E002C0880F991F2A95E2F7C695C69590
:1031700020E2C29FE0011124C82BD92BDA68A7CF27
:1031800081153AE59307B0F4C11589E5D80708F031
:103190007EC0C11526E5D20708F46EC0CE01985551
:1031A0008F3F910511F008F09ACFDC2FCC27C06F2C
:1031B000D06A8DCF90568115904208F090CF8D2F18
:1031C0008F710E94F11990E0982F882788279F71AE
:1031D0008C2BEC015AC0A497D06479CFC85AD0E0A8
:1031E000CC0FDD1FCE52DE4F0990D881C02DD464A4
:1031F0006ECF805C91090E943B18EC0168CF9F70F4
:10320000FACFEC01D86C63CFDF70D06A60CF9E013B
:1032100074E0369527957A95E1F723708C2F869583
:103220008695837030E2839FC0011124922BC37076
:1032300021E030E002C0220F331FCA95E2F7822B53
:10324000932BEC01DC6843CF9E012370332781E090
:1032500090E002C0880F991F2A95E2F7C695C6959F
:1032600020E2C29FE0011124C82BD92BEBCFDC2F29
:10327000CC27C46FD06A2BCF8C2F0E94F119C82F96
:10328000D0E0DC2FCC27CC27DF71D06220CF8C2F71
:103290008F700E94F11934E0D695C7953A95E1F701
:1032A000CF709C2FEC01D06912CF0E9427180C948C
:1032B0004318803E910599F1C8F48133910509F4D2
:1032C00076C048F48932910509F46AC08A329105C2
:1032D00009F474C0089589339105D1F082389105BD
:1032E000B9F08533910509F454C00895843E9105E1
:1032F00099F138F4823E9105F9F0833E910509F188
:103300000895863E910599F1873E9105B9F108959A
:103310002091FF032370A1F080EE90E008952091AA
:10332000FF0320FD52C03091000430FF09C024FF8C
:103330004FC090E080E004C02091FF0322FDF7CF52
:1033400008952091FF0322FD46C03091000430FD16
:10335000E3CF24FFF5CFEDCF2091000421FFF0CF84
:103360008091FF0384FDE5CF87EE90E008952091E2
:10337000FF0323FFE5CF24FDDCCFF6CF2091FF0331
:1033800023FD2CC03091000431FFE3CF84EE90E0A8
:1033900008952091FF0325FFD3CF89E290E008959F
:1033A0002091FF0325FFCCCF85E390E00895209185
:1033B000FF0326FFC5CF8AE290E008952091FF0326
:1033C00026FFBECF81E390E0089589E390E0089561
:1033D00083EE90E0089582EE90E0089586EE90E00E
:1033E00008959091FF0392FF06C0282F287128307E
:1033F000F9F4877F846093FF06C0282F2871283155
:10340000F1F4877E84612091000420FF06C0382FEC
:1034100038713830D9F4877F816021FF06C0282FAA
:1034200028712831D1F4877E816194FD877E0895CB
:10343000282F24712430F9F68B7F8860DCCF282F69
:103440002471243101F78B7E8861DDCF382F3171F3
:10345000313019F78E7F8860E0CF282F217121311C
:1034600021F78E7E8861E1CF0C9461160E94A21B29
:103470008FE39CE90197F1F700C000000E94A21BB6
:1034800080E00E94891A80FF04C00E94341A0C94C4
:10349000FE2908950C94361ACF93DF9300D000D004
:1034A000CDB7DEB70E946716811102C00E940C17CB
:1034B0000E947216809345030E947A16909300042E
:1034C0008093FF030E944A1A0E947616282F30E04C
:1034D00050E040E0CA01B9010E94980E8091B60206
:1034E0009091B702A091B802B091B90289839A83F2
:1034F000AB83BC83BC01CD010F900F900F900F9058
:10350000DF91CF910C94140F08950C94841A0C94AD
:103510009A08E82FF0E0EE0FFF1FE55FFB4F808178
:1035200091810895CF92DF92EF92FF920F931F93B4
:10353000CF93DF9384E594E00E9425078BE0E82E8B
:1035400084E0F82ED0E0C0E09FE4C92E94E0D92EAC
:1035500006E414E0DF93CF93DF92CF920E94BE0780
:103560008CE494E00E942507F701819191917F01FD
:103570000E94B7099F938F931F930F930E94BE07DA
:1035800084E494E00E94250721968DB79EB70896A3
:103590000FB6F8949EBF0FBE8DBFC530D105D1F6D2
:1035A000DF91CF911F910F91FF90EF90DF90CF901F
:1035B000089580EA8A95F1F7089500C008950C9463
:1035C000D91AF894E82FE295EF70F0E041A18F70DE
:1035D00021E030E0B90102C0660F771F8A95E2F75B
:1035E000CB01962F9095942391A392A1892B82A32E
:1035F00078940895CF93DF93CEE0D2E089918F3F06
:1036000011F00E94E11A82E0C331D807B9F7C0E097
:10361000D2E089918F3F11F00E94E11A82E0CE3012
:10362000D807B9F7DF91CF910895AF92BF92CF92AB
:10363000DF92EF92FF920F931F93CF93DF93EC01F2
:10364000D62E062F10E0C801825F9D4F7C01FC0141
:1036500080818F3F09F453C0F894E82FE295EF7012
:10366000F0E091A18F7021E030E001C0220F8A9537
:10367000EAF7892F822B81A382A12095282322A3F8
:1036800078940E94DD1AE0E0F2E050E040E0B12CD6
:10369000A12C61E070E081918F3FE1F1A82FA2950C
:1036A000AF70A05EB0E02C9130E08F7002C0359515
:1036B00027958A95E2F720FD2DC09B01042E02C0BC
:1036C000220F331F0A94E2F7A22AB32A4F5F5F4FFB
:1036D0004E30510501F7F70180818F3F11F00E94B4
:1036E000E11A61E0A114B10409F460E08D2D0E949B
:1036F000DF1A000F111FC00FD11FB982A882DF91FE
:10370000CF911F910F91FF90EF90DF90CF90BF90DE
:10371000AF90089520E030E0D7CF0E94FA1A8AE0F7
:10372000E1E0F4E0DF01982F1D929A95E9F7EBE0D4
:10373000F4E0DF011D928A95E9F785E00E94F01B15
:103740000C942109FF920F931F93CF93DF93CDB772
:10375000DEB72A970FB6F894DEBF0FBECDBFFE01CD
:1037600031968AE0DF011D928A95E9F710E0FE2E7E
:103770000F2F612F8F2D902F0E94151B1F5F15306B
:10378000C1F74AE050E06F2D702F81E094E00E9475
:10379000CD319C0111E0892B09F410E0232B49F075
:1037A0008AE0EF2DF02FA1E0B4E001900D928A9510
:1037B000E1F7212F45E06BE074E081E094E00E94A6
:1037C000F11B0E942709812F2A960FB6F894DEBFBD
:1037D0000FBECDBFDF91CF911F910F91FF90089544
:1037E0000895FF920F931F93CF93DF93F82E092F25
:1037F000162FD72FC42F222349F081E0809348034E
:103800000E949F2990934703809346038091480329
:103810008823A1F080914603909147030E94CB2911
:10382000059760F0EF2DF02FA12FBD2F90E080E0E5
:10383000D0E08C179D0744F010924803DF91CF91A0
:103840001F910F91FF900895219131912D933D93F8
:103850000196EFCF0E941B290E944A2C0E94632CE4
:103860000E94792C0E944417FBCF80918E011F92F9
:103870008F9380918F011F928F93809192011F925D
:103880008F93809193011F928F93809194011F9247
:103890008F93809195011F928F938BE694E09F9375
:1038A0008F930E94BE078DB79EB70E960FB6F89401
:1038B0009EBF0FBE8DBF0895CF93DF9300D000D081
:1038C000CDB7DEB789831F928F9385E096E09F93F3
:1038D0008F930E94BE0781E090E0A0E0B0E09C01E1
:1038E000AD01098004C0220F331F441F551F0A94E5
:1038F000D2F729833A834B835C83CA01B9010E94C2
:10390000980E0F900F900F900F900F900F900F90B8
:103910000F90DF91CF910C942B0E893209F46AC07D
:1039200010F5833109F47AC040F4873009F4D2C02D
:103930008B3051F18AEC95E0E1C0843109F45AC032
:1039400092EE980F9A30B0F78D5180934D038430EA
:1039500009F06BC082E991E090934C0380934B0394
:1039600089E392E086C0803509F4CBC030F4883317
:1039700059F08F34F9F68AE0C5C0813509F4DAC010
:103980008235C1F681E0BEC08FEE95E00E9425072A
:103990000E94351C1F9281E08F931F9285E08F93C8
:1039A00088EE94E09F938F930E94BE070F900F9034
:1039B0000F900F900F900F9020914D03222309F448
:1039C000C2C08091490390914A03009711F483E1AA
:1039D00092E09F938F931F922F9388EB95E09F9394
:1039E0008F930E94BE070F900F900F900F900F9033
:1039F0000F9008958CEE95E00E94250780914D036D
:103A0000882309F4A4C010924D0310924C03109225
:103A10004B0310924A0310924903CECF8EED95E0EE
:103A20000E9425070E94351CC7CF853068F482307C
:103A3000B1F18330E9F18130A1F010924D038BEDAB
:103A400095E00E94250719C08530D9F18630A9F785
:103A50008EE891E090934C0380934B038BE592E0CA
:103A600008C085E991E090934C0380934B0387E174
:103A700092E090934A038093490380914D038823F9
:103A800009F49ACF1F928F9387ED95E09F938F93C0
:103A90000E94BE070F900F900F900F908DCF84E97A
:103AA00091E090934C0380934B0380E292E0E1CF4E
:103AB00083E991E090934C0380934B038CE292E076
:103AC000D8CF8FE891E090934C0380934B0388E428
:103AD00092E0CFCF82E0809395018CE080939401B7
:103AE00086E08093930182E38093920188E0809343
:103AF0008F0188E280938E018DEC95E00E9425076E
:103B00005BCF86EFE0914B03F0914C033097C1F00F
:103B10002081082E000C990B820F911D8F3F91057B
:103B200009F054F497FD0AC080831F928F9384ECB0
:103B300095E0ACCF8FEFE6CF8FEFF6CF80E0F4CFFC
:103B400081EC95E0DBCF84EB95E00C94250708959C
:103B5000DF92EF92FF920F931F93CF93DF93EBEFE0
:103B6000E80FEF3308F030C1F0E0E25DFD4C0C945B
:103B7000B3310E9476161F928F9386E59AE09F9349
:103B80008F930E94BE070E94721683FB992790F9BB
:103B90001F929F9382FB992790F91F929F9381FB1D
:103BA000992790F91F929F93982F91701F929F933E
:103BB0001F928F938DE09AE09F938F930E94BE0790
:103BC0000E947A1687FB222720F91F922F9386FBEB
:103BD000222720F91F922F9385FB222720F91F927D
:103BE0002F9384FB222720F91F922F9383FB2227F8
:103BF00020F91F922F9382FB222720F91F922F93E7
:103C000091FB222720F91F922F93292F21701F92B9
:103C10002F9381FB222720F91F922F93282F2170A9
:103C20001F922F939F938F9388E299E09F938F9396
:103C30000E94BE078DB79EB788960FB6F8949EBFB8
:103C40000FBE8DBF81E01CC086E19BE00E9425076E
:103C50000E940C17F7CF86E797E00E942507F2CF66
:103C600080914503807F809345038FE497E00E9415
:103C7000250782E19BE00E94250781E080934E03A7
:103C8000DF91CF911F910F91FF90EF90DF900895FA
:103C900086EF9AE00E9425070E942C09D3CF9091CD
:103CA0004503892F8E7F90FF81608093450380FFBD
:103CB00003C08AEE9AE0D1CF8DED9AE00E942507ED
:103CC00080914503817F80934503BCCF909145034C
:103CD000892F8D7F91FF82608093450381FF08C00B
:103CE00080ED9AE00E942507809145038160EBCF2B
:103CF00082EC9AE0B2CF90914503892F8B7F92FF9F
:103D000084608093450382FF03C083EB9AE0EACF8F
:103D100083EA9AE0A2CF90914503892F877F93FF92
:103D200088608093450383FF03C087E99AE0DACF78
:103D30008AE89AE092CF8EE896E08FCF0E94AB2976
:103D4000D62F172F082FF92EC091FF03C7FBCC27C2
:103D5000C0F9D090FE03E090A3010E949C27FF923F
:103D60000F931F93DF931F92CF931F92DF921F92A7
:103D7000EF921F928F938AE096E09F938F930E9419
:103D8000BE078DB79EB70E960FB6F8949EBF0FBEB6
:103D90008DBF58CF0E942B0E9091FF03892F97FB68
:103DA00087F980588093FF0387FF03C080E89AE07B
:103DB00054CF85E79AE051CF80E00E945C1C42CF4F
:103DC0008953FBCF8D51F9CF83E79AE00E942507F5
:103DD00080E056CF80E008950C94EA1ECF93C82F60
:103DE00080914E038130A9F0823009F443C08111E3
:103DF00046C00E944615823209F043C08C2F0E94B3
:103E0000EA1E81111BC08C2F0E94A81D8170CF91CA
:103E100008950E944615823289F38C2F0E94EC1E71
:103E200081111BC0C431D9F060F4CB3071F0C031C6
:103E3000D1F08FEF95E00E94250713C081E090E05C
:103E4000E5CFC93261F0C833A1F78FE497E00E9453
:103E5000250781E096E00E94250781E0D7CF1092E8
:103E60004E0380E0D3CF82E080934E0388E30E942C
:103E70008D1CF3CF8C2F0E948D1C81E0C8CF109237
:103E80004E0380E0C4CF8091550380FF12C0609143
:103E9000930185E0689FB00111247595679575952C
:103EA000679560387105A8F561157105A1F1862F38
:103EB000089581FF09C06091930185E0689FB0017A
:103EC000112475956795EDCF6091930182FD0AC02D
:103ED000209154032223D1F090919201609193019B
:103EE000291728F085E0689FB0011124DACF269FBA
:103EF0009001112485E0829FA001839F500D112421
:103F0000692F70E0CA010E949F31CBCF65E070E05D
:103F1000CECF8FE7089581E008958091550380FF0B
:103F20000CC060918F0170E07595679575956795E8
:103F30006115710549F1862F089581FF06C06091D2
:103F40008F0170E075956795F3CF60918F0182FDC9
:103F50000BC0909153039923A1F060918E01809141
:103F60008F01961738F0682F70E06038710500F304
:103F70008FE70895899FC001112470E00E949F314E
:103F8000F4CF61E070E0D7CF81E00895E3E1E80F7E
:103F9000E331E0F5F0E0E359FD4C0C94B3310E94BD
:103FA000431F81958093590308950E94431FFACFC0
:103FB0000E94431F81958093580308950E94431FD8
:103FC000FACF0E948D1F80935A0308950E948D1F7F
:103FD0008195F9CF0E948D1F819580935B03089591
:103FE0000E948D1FFACF815F990B21E030E001C064
:103FF000220F8A95EAF780915703822B809357030B
:1040000008958091550381608093550308958091B0
:1040100055038260F9CF809155038460F5CF4091BC
:1040200058038D3E59F48091590387FF0DC01092BB
:10403000590341110BC01092540308C08E3E81F405
:104040008091590318169CF3442381F080915A0300
:1040500090915B03892B09F05AC010925303089585
:104060008F3E49F447FFF0CF1092580380915903D7
:104070008111ECCFE0CF803F19F41416ACF3E4CFFC
:1040800090915A03893F29F41916F4F610925A03B5
:10409000DBCF8A3F19F497FFD7CFF8CF90915B031E
:1040A0008B3F29F497FFD0CF10925B03CDCF8C3F8D
:1040B00019F41916CCF3C8CF9FE0980F983090F4FC
:1040C000815F990B21E030E0B90102C0660F771FD4
:1040D0008A95E2F7CB0180959091570389238093CD
:1040E0005703B2CF8D3F31F4809155038E7F80937B
:1040F0005503AACF8E3F21F4809155038D7FF7CFD2
:104100008F3F09F0A1CF809155038B7FF0CF0895A9
:104110008091450383FF7EC08EE49BE00E942507CB
:10412000809157031F928F9389E49BE09F938F9315
:104130000E94BE0787E49BE00E94250780915803F8
:10414000282F082E000C330B3F938F9384E49BE0C1
:104150009F938F930E94BE0782E49BE00E942507F5
:1041600080915903282F082E000C330B3F938F9317
:104170008FE39BE09F938F930E94BE078DE39BE0AC
:104180000E94250780915A03282F082E000C330B1C
:104190003F938F938AE39BE09F938F930E94BE0788
:1041A00088E39BE00E94250780915B03282F082E5F
:1041B000000C330B3F938F9385E39BE09F938F938A
:1041C0000E94BE0782E39BE00E9425078091540372
:1041D0001F928F938FE29BE09F938F930E94BE0765
:1041E0008DE29BE00E942507809155031F928F93DB
:1041F0008AE29BE09F938F930E94BE0787E29BE039
:104200000E9425078DB79EB74C960FB6F8949EBFB7
:104210000FBE8DBF0E949F292091580330915903F2
:10422000232B21F0809351039093520320915A0342
:1042300030915B03232B21F080934F039093500325
:1042400086E593E00C94FE27CF92DF92EF92FF92E7
:104250000F931F93CF93DF9300D000D000D0CDB742
:10426000DEB726E0E6E5F3E0CE010196DC01019041
:104270000D922A95E1F7C0905803D0905903E09031
:104280005A03F0905B031092580310925903109256
:104290005A0310925B032C2D2D298C0191F08091F3
:1042A0005103909152030E94CB299C0180915403A9
:1042B000882309F440C0909194019217130608F4E2
:1042C00048C08E2D8F2991F080914F03909150031B
:1042D0000E94CB299C0180915303882309F478C064
:1042E000909190019217130608F480C080915803B2
:1042F00090915903892B90915A03892B90915B03DC
:10430000892B11F00E94882086E0F801A6E5B3E031
:1043100001900D928A95E1F726960FB6F894DEBFCC
:104320000FBECDBFDF91CF911F910F91FF90EF9006
:10433000DF90CF900895409195019AE0499FA001A8
:1043400011244217530708F0BCCF8F5F80935403AA
:1043500002C08F3FD1F7CC2059F00E94431F9FEF3E
:104360001C140CF491E0899F802D11248093580334
:10437000DD2059F00E94431F9FEF1D140CF491E0C3
:10438000899F802D11248093590330915803332342
:1043900009F497CF20915903222309F492CF45EBDA
:1043A0003403C0011124992359F09093580345EB2D
:1043B000240390011124332339F03093590381CF22
:1043C00081E080935803F3CF81E08093590379CF44
:1043D000409191019AE0499FA0011124421753078F
:1043E00008F084CF8F5F8093530302C08F3FD1F7D3
:1043F000EE2059F00E948D1F9FEF1E140CF491E0E7
:10440000899F802D112480935A03FF2059F00E9428
:104410008D1F9FEF1F140CF491E0899F802D1124B4
:1044200080935B0330915A0320915B03332309F49B
:104430005DCF222309F45ACF45EB3403C001112488
:10444000992359F090935A0345EB240390011124CA
:10445000332339F030935B0349CF81E080935A03D3
:10446000F3CF81E080935B0341CF86E0E6E5F3E0A4
:10447000DF011D928A95E9F71092540310925303BD
:104480001092550308950F931F93CF93DF93C42F7A
:10449000D22FFC0182818823C9F040935E030E94E1
:1044A0009F2990935D0380935C0380E28C0F88309A
:1044B00008F050C0C77081E001C0880FCA95EAF7C4
:1044C000DF91CF911F910F910C94430B10915E03DC
:1044D000141335C080915C0390915D030E94CB2939
:1044E000883C910560F5C0E2CD0F1D17B9F080E260
:1044F000810F883040F4177081E001C0880F1A9551
:10450000EAF70E944A0BC83048F481E09D2F97706B
:1045100001C0880F9A95EAF70E94430B802F0E94F2
:104520003B0BC830B8F4D77081E001C0880FDA9532
:10453000EAF7DF91CF911F910F910C944A0B80E223
:104540008C0F883038F4C77081E001C0880FCA959D
:10455000EAF7EFCFDF91CF911F910F9108950F935D
:104560009C01CB01243F4CE53407A1F190F4293D97
:10457000FCE53F0749F12A3D4CE53407E9F1283DC8
:104580003C45C1F0FC0182818823E1F110925E0379
:1045900019C0263FFCE53F0719F1273F4CE53407DA
:1045A00029F1253F3C4571F707E225EE44EE65EF22
:1045B0007CE505C006E221EE41EE68ED7CE50E9457
:1045C000432280E00F91089507E225EE45EE69ED64
:1045D0007CE5F5CF06E221EE40EE64EF7CE5EFCF1F
:1045E00006E221EE42EE66EF7CE5E9CF07E225EE3A
:1045F00046EE67EF7CE5E3CF08E221E045EE6AEDA9
:104600007CE5DDCF81E0DECFCF93DF93EC01FB01D2
:104610008281882309F4CEC0C631FCE5DF07E0F4CF
:10462000C2309CE5D907F0F00E947A1690930004FE
:104630008093FF03C631ECE5DE0720F5C230FCE5D0
:10464000DF0798F48091FF03909100040E94881680
:104650000E942B0E80E006C09E012B5F3C45293056
:10466000310510F3DF91CF910895FE01E350FC4531
:104670008091FF038160E331F105B0F4E058FD4C17
:104680000C94B331CE018B5F9C450997D8F6FE019F
:10469000EC5FFC45E830F10590F4ED56FD4C0C94D0
:1046A000B3318091FF0382608093FF03CBCF809171
:1046B000FF038460F9CF8091FF038860F5CF80917C
:1046C0000004816080930004BDCF8091000482606B
:1046D000F9CF8091FF038061E7CF8091FF03806273
:1046E000E3CF8091FF038064DFCF0E942B0E809187
:1046F000FF038068D9CF8091FF038C60D5CF809174
:1047000000048360DFCF8091FF038E7FCDCF809147
:10471000FF038D7FC9CF8091FF038B7FC5CF809131
:10472000FF03877FC1CF809100048E7FCBCF809124
:1047300000048D7FC7CF8091FF038F7EB5CF80911E
:10474000FF038F7DB1CF8091FF038F7BADCF0E94A0
:104750002B0E8091FF038F77A7CF8091FF03837F7C
:10476000A3CF809100048C7FADCF8091FF0382FBAB
:10477000992790F921E0922790FB82F990FB83F929
:1047800093CF80910004982F909591708E7F892B04
:1047900090FB81F997CF0E942B0E9091FF03892FF8
:1047A00097FB87F9805880CF81E00E940E174ACF8F
:1047B00080E0FBCF81E056CFCF93DF93EB018631D2
:1047C0009C4511F50E9446159A81992399F08A7AA1
:1047D00091E009F490E090935F03811109C089E2B0
:1047E0000E94C4140E94D61580E0DF91CF910895F5
:1047F00085E3F6CF80915F03811104C089E20E94B6
:10480000CB14F0CF85E3FBCF81E0EFCF08950F937A
:104810001F93CF93DF938091CB03E09160031CE063
:1048200081111EC0DF91CF911F910F91089501E07A
:104830000E0F00936003CE2FD0E01E9FD0011124F5
:10484000A559BC4F13968D919C911497892B39F0E3
:104850008C9111969C91119789238F3FE9F4E02F59
:104860008091CB03E81718F31092CB0310926003EA
:10487000D9CF18968D919C918F3F980799F061E060
:104880000E9406241C9FF0011D9FF00D1124E55984
:10489000FC4F14821382E3CF16968D919C9117974B
:1048A000892B39F3E19FF0011124E559FC4F208158
:1048B00031814281538164817581868197810E9413
:1048C0002414E0CF1092CD031092CC0320919701D5
:1048D00030919801E0E0F1E090E080E0281739079E
:1048E00009F408954581411102C01482168201968F
:1048F0003796F4CFAC013091690360916A03232F9E
:10490000621301C00895822F90E0FC01EE0FFF1F9B
:10491000EF59FC4F0190F081E02DE417F50791F479
:1049200067E0649FF001659FF00D1124E050FF4F98
:1049300041E044832313E6CF019683709927809347
:10494000690308950196282F2370DACF7F928F9202
:104950009F92AF92BF92CF92DF92EF92FF920F930E
:104960001F93CF93DF93DB0114962C9114972111A1
:1049700065C07090CB03CBE6D3E050E040E0812CE3
:1049800061E070E0471508F044C0AA84BB84CD9074
:10499000DC9011972FEF3FEF912CE92CF12CF701D0
:1049A000EE0FFF1FEC0DFD1D05911491A016B10631
:1049B00009F49701012B11F09394EFCF2F3F3207A9
:1049C000C9F1FB0102C0EE0FFF1F2A95E2F78E2A04
:1049D0009B0102C0220F331F9A94E2F72150310944
:1049E0008216130629F512962D913C9113976CE0CF
:1049F000649FF001659FF00D1124E559FC4F37834A
:104A000026832EEF208321838087918721E01596CE
:104A10002C93DF91CF911F910F91FF90EF90DF903A
:104A2000CF90BF90AF909F908F907F900C947A24FE
:104A30001C821B824F5F5F4F2C96A4CFDF91CF91DA
:104A40001F910F91FF90EF90DF90CF90BF90AF90AC
:104A50009F908F907F9008951F93CF93DF93C09185
:104A6000690317E080916A038C1307C00E94072432
:104A7000DF91CF911F910C946224D0E0FE01EE0FE4
:104A8000FF1FEF59FC4F80819181189FB001199F42
:104A9000700D112460507F4F0E94A6242196C37090
:104AA000E1CFEF92FF921F93CF93DF93DC01EB01F5
:104AB0008D919C91119710E020E030E0E32FF0E021
:104AC000EE0FFF1FE80FF91F459154914115510555
:104AD000B1F06881798120E005C04E155F0509F4C9
:104AE00011E02F5FE22FF0E0EE0FFF1FE60FF71F40
:104AF000E590F490E114F10481F73F5FDFCF1123DB
:104B000051F0231708F4DE01CD01DF91CF911F9101
:104B1000FF90EF900895B0E0A0E0F6CF809196016D
:104B2000882341F18091CE039091CF03009711F13A
:104B30000E94CB292091CC033091CD03281739074F
:104B4000C8F49091690380916A03981759F00E9404
:104B50002C251092CD031092CC031092CF0310920B
:104B6000CE0308950E9407241092CF031092CE0323
:104B70000C94622408951092CF031092CE031092E9
:104B8000960180916A03809369030E9462240C94C9
:104B900007248091960181110C94BB2581E08093BC
:104BA000960108952F923F924F925F926F927F925B
:104BB0008F929F92AF92BF92CF92DF92EF92FF922D
:104BC0000F931F93CF93DF93CDB7DEB729970FB61F
:104BD000F894DEBF0FBECDBF7C012B01FB0112811B
:104BE000883FFCE59F07F9F4112321F181E08093D0
:104BF0009601812F29960FB6F894DEBF0FBECDBF68
:104C0000DF91CF911F910F91FF90EF90DF90CF90A8
:104C1000BF90AF909F908F907F906F905F904F90DC
:104C20003F902F900895893F2CE5920709F04DC0E1
:104C3000111148C000E011E0D12CC12C1986882444
:104C40008394912C8091970190919801C816D90670
:104C500008F445C0F2018281882309F456C1F98520
:104C6000FF2309F452C10E949F299093CF038093A0
:104C7000CE038091CB03883008F591E0980F909394
:104C8000CB0398E0F201DE01119601900D929A9506
:104C9000E1F72CE0829FC001112485599C4F28E048
:104CA000FE013196DC0101900D922A95E1F72FEF7C
:104CB0003FEFFC0131872087F386E28611E0F9851A
:104CC0001F2797CF0E94BB2594CF8A3F9C4509F0B0
:104CD000B1CF112309F4AECF0E94C9258ACFF801C4
:104CE00060817181AA24AA94BB24BA9420E0422F47
:104CF00050E0FA01EE0FFF1FE60FF71F8591949128
:104D0000E816F90609F45A01892B11F02F5FEFCF4D
:104D1000312CFFEFAF16BF0609F443C0F801448100
:104D200080919601411180E0F82FF1703F2EF8013B
:104D300075808681F2019281992309F488C033201D
:104D400009F485C0711014C0A40101C0440FAA94D5
:104D5000EAF7842BF80186838091CC039091CD03F0
:104D6000C29730F462E370E07093CD036093CC039C
:104D7000C40102C0880F991F2A95E2F70197F80134
:104D800026812817190669F48091CE039091CF03EC
:104D9000009781F00E94CB29C39760F021E0F801D1
:104DA0002483F985F329F9872FEFC21AD20A095F04
:104DB0001F4F48CF20906903E0E0F0E080916A0344
:104DC000281212C00E171F0761F3822D90E0FC011C
:104DD000EE0FFF1FEF59FC4FD182C0820196837006
:104DE000992780936A03DDCFA22CB12CF501EE0F39
:104DF000FF1FEF59FC4F2081318147E0429FC001E6
:104E0000439F900D1124BC0160507F4F3B01B801BE
:104E1000C3010E945125FC01009799F071E0748351
:104E20008017910709F4BDCF80916903281209C04A
:104E30006E167F0631F4C501019683709927809321
:104E40006903C5010196282F2370222EB7CF90E069
:104E500071101FC0B40102C0660F771F2A95E2F7D8
:104E60009B01215031092817390731F4442309F4F3
:104E70004AC0C6010E947A24C40101C0880FAA94C6
:104E8000EAF7982F9095F801868189238683372C3D
:104E900088CFAC010A2C02C0559547950A94E2F7D9
:104EA0009C012150310982239323892B41F540FF36
:104EB00026C0F80182819381892BE1F01B821C823C
:104EC0001D821E82FEEFF983FA830E949F29816072
:104ED000582F692F9D838C83F801828193818F8362
:104EE000988729813A814B817E810E942414F801A0
:104EF0001582C2CF60E0C6010E940624F8CFF42FCD
:104F0000F1707F2EB9CF732CB7CF90916903809148
:104F10006A03981719F00E942C25D0CE0E9407240E
:104F20001092CF031092CE030E946224C7CE9093BA
:104F3000D5038093D4030895E091D403F091D50371
:104F4000309721F00190F081E02D099480E00895E0
:104F5000EF92FF920F931F93CF93DF93EC01E091B9
:104F6000D403F091D503309709F441C08091A30197
:104F7000882341F08091FF0387FF04C088818983E3
:104F800085E088830280F381E02DCE010995809130
:104F9000450382FF2CC080FF04C089E79BE00E948C
:104FA0002507CE0108967C0103E71BE080914503AD
:104FB00080FF0BC088811F928F931F930F930E94D5
:104FC000BE070F900F900F900F902196CE15DF0522
:104FD00069F78091450380FF0AC081E79BE0DF917C
:104FE000CF911F910F91FF90EF900C942507DF91C7
:104FF000CF911F910F91FF90EF900895DC01E09108
:10500000D403F091D503309739F082E08C9304807B
:10501000F581E02DCD01099408952091D2033091BE
:10502000D3032817390771F09093D3038093D203E9
:10503000E091D403F091D503309721F00680F781F9
:10504000E02D099408952091D0033091D1032817C1
:10505000390771F09093D1038093D003E091D4038A
:10506000F091D503309721F00084F185E02D09946B
:105070000895FC0132968091A301882321F080914C
:10508000FF039EE187FF96E080E0915008F40895C9
:1050900021912223D1F38F5FF8CF9C01662301F188
:1050A0008091A3018823F1F08091FF0387FF1AC04C
:1050B000462F469546954695603F90F4677081E08F
:1050C00090E002C0880F991F6A95E2F7240F311D06
:1050D000F901228130E02823392381E0232B71F468
:1050E00080E00895F9013296285F3F4F819186173D
:1050F00021F0E217F307D1F7F3CF81E008959C0187
:10510000FC0132968FEF90E04191461751F08F3FAE
:1051100019F4411101C0892F9F5F9630A9F78F3F85
:1051200009F40895280F311D87FD3A95F90162832E
:1051300008959C01FC013296285F3F4F81918613B0
:1051400003C0DF0111971C92E217F307B9F7089526
:10515000FC01862F869586958695603F68F4E80F5A
:10516000F11D677021E030E001C0220F6A95EAF777
:105170008281822B828308958091450380FF0CC039
:105180001F926F9389EA9BE09F938F930E94BE07C3
:105190000F900F900F900F900895FC01862F869529
:1051A00086958695603F70F4E80FF11D677081E089
:1051B00090E001C0880F6A95EAF780959281892373
:1051C000828308958091450380FF0CC01F926F93E6
:1051D0008BE89BE09F938F930E94BE070F900F90E8
:1051E0000F900F9008952091A301222329F0209180
:1051F000FF0327FD0C94A8280C947F282091A3017D
:10520000222329F02091FF0327FD0C94CD280C9434
:105210009928FC0132968091A301882351F0809156
:10522000FF0387FF06C08EE1DF011D928A95E9F733
:10523000089586E0F9CF0895089508950C941D29E6
:1052400080911D04843049F10E941E2980E00E9453
:10525000D9091092D60388E190E020E40FB6F894C3
:10526000A895809360000FBE2093600083B7817F74
:10527000846083BF83B7816083BF7894889583B748
:105280008E7F83BF0FB6F894A895809160008861E7
:1052900080936000109260000FBE08950895CF9330
:1052A0000E941C290E94A21B0E944E29C0E08C2F44
:1052B0000E94891A892B31F4CF5FC530C1F780E095
:1052C000CF91089581E0FCCF08950C9464290E9449
:1052D0002B0E0E949C270E94D9090C9465291F92CD
:1052E0001FB61F9211248F939F93AF93BF9380910A
:1052F000D603811113C08091150490911604A091DA
:105300001704B09118044196A11DB11D8093150496
:1053100090931604A0931704B0931804BF91AF9113
:105320009F918F911F901FBE1F90189582E084BDA2
:1053300093E095BD9AEF97BD80936E0008952FB7C7
:10534000F8948091150490911604A0911704B091DF
:1053500018042FBF0895CF93DF9300D000D0CDB7AE
:10536000DEB78FB7F8942091150430911604409160
:1053700017045091180429833A834B835C838FBFB1
:1053800069817A818B819C810F900F900F900F9093
:10539000DF91CF9108959C014FB7F8948091150447
:1053A00090911604A0911704B09118044FBF821B6E
:1053B000930B089578941F921FB61F9211248F9318
:1053C0009F93AF93BF938091150490911604A09181
:1053D0001704B09118040196A11DB11D8093150406
:1053E00090931604A0931704B0931804BF91AF9143
:1053F0009F918F911F901FBE1F90189581E0809301
:10540000E00080E28093D8001092C9008FE19EE412
:105410000197F1F700C0000087E090EBDC0180937A
:10542000260490932704A0932804B093290488E1CC
:105430009CE00FB6F894A895809360000FBE9093FF
:105440006000FFCF90938102809380020895809145
:10545000FD03089590911D04943031F58093D90394
:105460006093DA037093DB0382E08093E9008FEFAF
:105470009091E800815095FD06C095ED9A95F1F761
:1054800000008111F5CF8091E80085FF0DC050E04C
:1054900040E063E070E089ED93E00E94092D809187
:1054A000E8008E778093E8000895BC0184E00C94B6
:1054B0002A2ABC0183E00C942A2A22E02093E900E6
:1054C0002FEF3091E800215035FD06C035ED3A95BB
:1054D000F1F700002111F5CF2091E80025FF0BC066
:1054E00050E040E066E070E00E94092D8091E80005
:1054F0008E778093E8000895CF93DF93D82FC92F3C
:105500008091A3018823C1F18091FF0387FF34C0FC
:1055100060E282E08093E9008FEF9091E800815093
:1055200095FD06C095ED9A95F1F700008111F5CF34
:105530008091E80085FF1DC08091A30170E050E0DC
:1055400040E0811104C050E040E068E070E08D2F41
:105550009C2F0E94092D8091E8008E778093E800AF
:1055600080E2ED2FFC2FADEDB3E001900D928A9516
:10557000E1F7DF91CF91089568E081E0CBCF8CEE29
:105580009BE00E94250780911C04811109C00E94A4
:10559000912E0E94EE2E8091E20084608093E200C2
:1055A000089588EE9BE00E94250710921C04089540
:1055B00084EE9BE00C94250780EE9BE00C9425077D
:1055C0008CED9BE00C9425072091D8032F5F822F50
:1055D00062E30E949331992319F02093D803089530
:1055E0001092D8038091DC038823E9F080911D0498
:1055F0008430B9F49091E9008091EC008795882778
:1056000087959F70892B93E09093E9009091EB0030
:1056100090FF04C09091EE0097FD08C08F708093BA
:10562000E9001092DC0308951092F1009091E800D7
:1056300095FDFACF9091E80090FFF0CF9091E800AF
:105640009E779093E800EACF42E061EC81E00E940F
:105650000D2E42E261EC82E00E940D2E42E261ECEE
:1056600083E00C940D2E80911F04893089F148F459
:10567000823009F49DC0833009F458C0813041F074
:1056800008958A3009F484C08B3009F46AC0089503
:1056900080911E04813A09F048C08091E800877F1C
:1056A0008093E8008091220490912304892B61F477
:1056B00060E28DED93E070E00E94582D8091E8004B
:1056C0008B778093E800089560E090E080E0F3CF6E
:1056D00080911E04813249F5809122049091230427
:1056E000029718F58091E800877F8093E800809109
:1056F000E80082FF16C09091F3008091F2000297BB
:1057000029F48091F1008B7F813021F48091F100A8
:105710008093FD038091E8008B778093E8000C94E0
:10572000412E80911D048111E2CF089580911E04C5
:10573000813AD9F78091220490912304892BA9F70B
:105740008091E800877F8093E8008091E80080FFE7
:10575000FCCF8091A3018093F1008091E8008E77C7
:10576000DCCF80911E04813201F780912204909158
:105770002304892BD1F68091E800877F8093E8008D
:105780000E94412E809120048093A3010C942B0E43
:1057900080911E04813249F68091E800877F8093D2
:1057A000E8000E94412E809121048093FE03089519
:1057B00080911E04813A09F0B8CF8091E800877F7C
:1057C0008093E8008091E80080FFFCCF8091FE0389
:1057D000C2CF9FB7F8941092DC039FBF90911D0435
:1057E000943009F047C02091E9009091EC00979522
:1057F000992797952F70922B23E02093E900209111
:10580000EB0020FF34C02091EE0027FF30C0209134
:10581000D703222321F02091E80025FF28C0109211
:10582000D70326E03091E80035FF14C08093F100E3
:105830008091E80085FD27C08091E80080FFFCCFC3
:105840008091E8008E778093E8009F709093E90044
:1058500080E0089530911D04343049F43091EB001C
:1058600035FD05C0215041F481E08093D7039F703E
:105870009093E9008FEF0895EFE9FFE03197F1F79A
:1058800000C00000CFCF8FB7F89421E02093DC0355
:105890008FBFDBCF84B7877F84BF0FB6F894A895FE
:1058A00080916000886180936000109260000FBE5C
:1058B00080E890E00FB6F8948093610090936100C7
:1058C0000FBE0C9434170E94912E0E94EE2EE2EE31
:1058D000F0E080818460808378940E9479310E9416
:1058E000481789E991E00E9497278BEC9BE00C9484
:1058F000250780911D04853051F487EC9BE00E94C0
:10590000250780911D04853021F00E9467290C94A1
:1059100076170E94202980911B04882391F30E940E
:105920004F29882371F30E94F32C0E942B0EE9CF9C
:105930000C949A2CFC01CB01DA012F2F3327233052
:105940003105D1F070F42130310509F447C022301F
:10595000310569F48BE590E02AE13CE02D933C931E
:10596000089521323105E9F02232310539F190E014
:1059700080E030E020E0F2CFCF019927E13059F00C
:105980008230910559F0E6E1FCE0892B81F78491A2
:1059900090E09F01E3CFE8E0FCE0F9CFE0EFFBE02F
:1059A000F6CF6330710518F7880F991FFC01E7588F
:1059B000FD4F2081318189E090E0D0CF63307105C7
:1059C000B0F6FB01EE0FFF1FED58FD4F2081318136
:1059D00080599D4FFC01808190E0C0CF82E190E032
:1059E00025E73CE0BBCF80E189BD82E189BD09B4F8
:1059F00000FEFDCF8091D8008F7D8093D8008091EC
:105A0000E00082608093E0008091E00081FDFCCFA7
:105A10000895AF92BF92CF92DF92FF920F931F93A0
:105A2000CF93DF936C01EB018A010E94602EF82E68
:105A3000811123C00115110539F0F8018081918190
:105A4000C81BD90BC80ED91EB12CA12C2097A9F0C8
:105A50008091E80085FD22C08091E8008E778093D8
:105A6000E80001151105A1F0F801808191818A0DEE
:105A70009B1D9183808385E0F82E8F2DDF91CF9140
:105A80001F910F91FF90DF90CF90BF90AF9008953E
:105A90000E94602E8823D1F2F82EEFCFF60181917B
:105AA0006F018093F1002197FFEFAF1ABF0ACECFAD
:105AB000FC01CB01209124043091250426173707DF
:105AC00090F0009729F42091E8002E772093E800C9
:105AD00040E0009751F4411108C08091E80082FF36
